:020000040800F2
:1000000070080020D1500008BD030008BF0300089D
:10001000C3030008C7030008CB030008000000006A
:10002000000000000000000000000000CF030008F6
:10003000D103000800000000D3030008D503000826
:10004000EB500008EB500008EB500008EB500008A4
:10005000EB500008EB500008EB500008EB50000894
:10006000EB500008EB500008EB500008EB50000884
:10007000EB500008EB500008EB500008EB50000874
:10008000EB500008EB500008EB500008EB50000864
:10009000EB500008EB500008EB500008EB50000854
:1000A000EB500008EB500008EB500008EB50000844
:1000B0001F410008EB500008EB500008EB5000080F
:1000C000EB500008EB500008EB500008EB50000824
:1000D000EB5000082950000853500008EB5000086E
:1000E000EB500008EB500008EB500008EB50000804
:1000F000EB500008EB500008EB500008EB500008F4
:10010000EB500008EB500008EB500008EB500008E3
:10011000EB500008EB500008EB500008EB500008D3
:10012000EB500008EB500008EB500008EB500008C3
:1001300000F002F800F03AF80AA090E8000C8244BF
:100140008344AAF10107DA4501D100F02FF8AFF29C
:10015000090EBAE80F0013F0010F18BFFB1A43F0A5
:100160000103184704A1000024A10000103A24BF95
:1001700078C878C1FAD8520724BF30C830C144BF0C
:1001800004680C607047000000230024002500264E
:10019000103A28BF78C1FBD8520728BF30C148BFEA
:1001A0000B6070471FB51FBD10B510BD06F0E0FD18
:1001B0001146FFF7F7FF00F009F806F0FEFD03B463
:1001C000FFF7F2FF03BC04F07DFE00001CB54FF406
:1001D000A06005F021FD00F0EFF900F006FA00F054
:1001E0002EFA00F059FA04F053FA04F001FE4FF42D
:1001F000E13004F076FE4FF4165004F0C3FE04F034
:100200001CFB55A200211E2004F0A8FB00F05AFAA6
:1002100000F0A3FA41F61F41092003F0D3FE00F0DD
:100220005CFC04F04FF900BF02F046FE0028FBD151
:100230004FF47A7004F019FE49484A494A4B4B4A38
:10024000CDE900104A494B4802F083FE4948006856
:100250004949086045480068484908600120484904
:10026000087004F0C3FC01204649086000BF4648FE
:1002700000780028FBD06EE039483A493A4B3B4AB7
:10028000CDE900103A493B4802F063FE002862D1F4
:100290003D48007800285ED03C4800683C49087022
:1002A0003C48D0F808013C4908703A48D0F80401AD
:1002B0003A49087004F0B0FC39492E48006808F04B
:1002C000FFF905D337492B48006808F0F9F806D242
:1002D00035480068CD2802DC0120344908602B48ED
:1002E000001D0068012808D12848006828B9304856
:1002F000006810B901202E4908602D4800680128C7
:1003000029D12248001D006830B900202849086022
:1003100001201D4908701EE01C48001D00680128CE
:1003200019D11A480068012815D12048006890B9F1
:1003300002201F4908600020134908701D49086009
:1003400053211D4805F0A0FB01200E490860002143
:10035000084600F04DFA8FE7496E69742E2E2E0084
:10036000400000203C000020380000203400002025
:10037000300000202C000020A0000020A40000205D
:1003800044000020B40122429800002000012142D4
:100390000000002000002142010000200200002097
:1003A0000000A0400000A0C0BC000020AC00002065
:1003B000100000209000002000440040704700BF63
:1003C000FEE700BFFEE700BFFEE700BFFEE77047A5
:1003D00070477047704700000CB5002001900090F6
:1003E0006C48006840F480306A49086000BF694882
:1003F000006800F4003000900198401C01900098C3
:1004000018B90198B0F5A06FF1D16248006800F406
:10041000003010B10120009001E000200090009811
:10042000012843D15C48006840F010005A49086038
:100430000846006820F0030008600846006840F0A5
:1004400002000860534840685249486008464068C6
:1004500048600846406840F480604860084640684C
:1004600020F47C1048600846406840F4E81048607A
:100470000846006840F08070086000BF454800688A
:1004800000F000700028F9D04248406820F00300D6
:10049000404948600846406840F00200486000BF9C
:1004A0003C48406800F00C000828F9D10CBD10B59C
:1004B000FFF792FF10BD10B53648006840F001000C
:1004C000344908600846406834490840314948606A
:1004D00008460068324908402E490860084600680E
:1004E00020F4802008600846406820F4FE00486040
:1004F0004FF41F008860FFF7DAFF4FF000602949D2
:10050000086010BD10B5002100200022214B5B685F
:1005100003F00C0121B1042906D0082928D107E0F5
:10052000214B224C236027E01F4B204C236023E00B
:10053000184B5B6803F47010164B5B6803F4803251
:10054000022303EB904022B9194B4343174C23601D
:100550000DE0104B5B6803F4003323B1144B4343AD
:10056000124C236003E0104B4343104C236003E024
:100570000D4B0E4C236000BF00BF064B5B68C3F3FE
:1005800003130C4CE15C094B1B68CB40074C236008
:1005900010BD000000100240002002400000FFF8E3
:1005A000FFFFF6FE08ED00E000127A0014000020C4
:1005B00000093D001800002008B50121102005F0B9
:1005C000C3F84FF40050ADF8000003208DF802008E
:1005D00010208DF803006946374804F0F9FD4FF408
:1005E0000051354804F0A3FE08BD08B501210C20D8
:1005F00005F0AAF8C020ADF8000018208DF803001F
:1006000003208DF8020069462C4804F0E1FDC0216A
:100610002A4804F08AFE40F2C330ADF800001820EA
:100620008DF8030003208DF802006946244804F089
:10063000CFFD40F2C331224804F077FE08BD08B573
:1006400001210C2005F080F82020ADF800000320E7
:100650008DF8020010208DF803006946174804F059
:10066000B7FD1020ADF8000003208DF80200102027
:100670008DF803006946114804F0AAFD0820ADF882
:10068000000003208DF8020004208DF80300694665
:100690000B4804F09DFD08BD08B50121042005F0BC
:1006A00053F80320ADF8000004208DF803006946DC
:1006B000024804F08DFD08BD001001400008014013
:1006C000000C014000B587B00121084605F03CF858
:1006D0000121022005F045F842F20F70ADF8140038
:1006E0004720ADF810000020ADF81600ADF812005C
:1006F00004A9B34805F0D2FB6020ADF8000001204A
:10070000ADF802000020ADF80600ADF8080069461B
:10071000AB4805F000FC0821A94806F04BF86946F3
:10072000A74805F03AFC0821A54806F04CF86946B0
:10073000A34805F07FFC0821A14806F051F869465E
:100740009F4805F0C2FC08219D4806F052F801219F
:100750009B4805F0FFFE07B000BD00B587B0012142
:10076000084604F0F1FF0121042004F0FAFF42F2F0
:100770000F70ADF814004720ADF810000020ADF860
:100780001600ADF8120004A98E4805F087FB602022
:10079000ADF800000120ADF802000020ADF8060021
:1007A000ADF808006946874805F0B5FB0821854883
:1007B00006F000F86946834805F0EFFB0821814800
:1007C00006F001F869467F4805F034FC08217D48B1
:1007D00006F006F869467B4805F077FC0821794861
:1007E00006F007F80121774805F0B4FE07B000BD18
:1007F00000280BDB724B3433188000221B1D1A803B
:10080000704B343318801B1D1A800DE000226C4B96
:1008100034331A8042421B1D1A800022694B343344
:100820001A8042421B1D1A8000290BDB644B3C33AB
:10083000198000221B1D1A80624B3C3319801B1D3E
:100840001A800DE000225E4B3C331A804A421B1D89
:100850001A8000225B4B3C331A804A421B1D1A80CF
:10086000704730B5002806DD564D34352880002409
:100870002D1D2C8006E00024524D34352C8044423E
:100880002D1D2C80002906DD4E4D3C35298000248D
:100890002D1D2C8006E000244A4D3C352C804C4216
:1008A0002D1D2C80002A06DD454D34352A8000247C
:1008B0002D1D2C8006E00024414D34352C805442FF
:1008C0002D1D2C80002B06DD3D4D3C352B8000245A
:1008D0002D1D2C8006E00024394D3C352C805C42D7
:1008E0002D1D2C8030BD00280ADB354B3433188099
:1008F00000221B1D1A801B1D18801B1D1A800CE076
:1009000000222F4B34331A8042421B1D1A800022D2
:100910001B1D1A8042421B1D1A8000290ADB294B2D
:100920003433188000221B1D1A801B1D18801B1DCC
:100930001A800CE00022234B34331A8042421B1DE4
:100940001A8000221B1D1A8042421B1D1A8070470C
:1009500000280BDB1A4B3433188000221B1D1A8031
:10096000184B34331A801B1D18800DE00022144BE5
:1009700034331A8042421B1D1A804242114B3433D9
:100980001A8000221B1D1A8000290BDB00220C4B51
:100990003C331A801B1D19800A4B3C3319801B1DE8
:1009A0001A800CE04A42064B3C331A8000221B1D81
:1009B0001A80044B3C331A804A421B1D1A80704730
:1009C000000400400008004070B505460C4600F0E9
:1009D00005FAD02000F07FFA00F02BFA18B100F0F1
:1009E00012FA012070BD284600F075FA00F021FAD5
:1009F000204600F070FA00F01CFA18B100F003FA7B
:100A00000120EFE700F0FFF90020EBE770B50446A6
:100A10000025BC2C01DB012510E0622C01DB022546
:100A20000CE02A2C01DB032508E0142C01DB042553
:100A300004E00A2C01DB052500E0062529461A20E2
:100A4000FFF7C2FF70BD70B50446B4F57A7F01DDD3
:100A50004FF47A74042C00DA04244FF47A7090FB7B
:100A6000F4F0401EC5B229461920FFF7ADFF054638
:100A7000264604EBD671C1F34F00FFF7C7FF70BDE8
:100A800070B5044600F0AAF9D02000F024FA00F076
:100A9000D0F9204600F01FFA00F0CBF900F09EF9E3
:100AA000D12000F018FA00F0C4F9002000F033FA69
:100AB000054600F0A8F9284670BD10B50446E006CA
:100AC000010E1C20FFF780FF10BD10B50446E006A4
:100AD000010E1B20FFF778FF10BD38B50121084635
:100AE00004F032FE0121042004F02EFE0820ADF8AF
:100AF000000010208DF8030003208DF802006946E5
:100B0000934804F065FB00209249086000F031F939
:100B100080216B20FFF758FF642004F0A6F9002124
:100B20006B20FFF751FF0320FFF7CFFF0020FFF7F7
:100B3000C4FF3220FFF787FF00213820FFF744FF72
:100B400000216A20FFF740FF00212320FFF73CFF30
:100B500080213720FFF738FF7520FFF791FF04460B
:100B6000682C0BD101216B20FFF72EFF00216C2098
:100B7000FFF72AFF3220FFF766FF01E0012038BDB2
:100B80000020FCE72DE9F04106460F4614461D46BD
:100B900000F024F9002141EA4601C8B200F09BF9B7
:100BA00000F047F920B100F02EF90120BDE8F081F6
:100BB000384600F090F900F03CF900F00FF90121FF
:100BC00001EB4601C8B200F086F900F032F90DE001
:100BD000012C04D1002000F09EF9287003E00120D0
:100BE00000F099F92870601EC4B26D1C002CEFD182
:100BF00000F009F90020D9E72DE9F84F6B460222F1
:100C000041216820FFF7BEFF9DF801009DF800100C
:100C100040EA01200FFA80FA504606F0F6FE8046C0
:100C200000224D4B06F06AFD06464C4A4C4B06F03E
:100C3000A9FC044606F074FC83464A49584607F06E
:100C400073FC044607F0D4FB00B2BDE8F88F2DE931
:100C5000FC4104460D4616466B4606224321682099
:100C6000FFF790FF0746BFB99DF801009DF80010FF
:100C700040EA012000B220809DF803009DF8021098
:100C800040EA012000B228809DF805009DF804107C
:100C900040EA012000B230803846BDE8FC812DE9F1
:100CA000FC4104460D4616466B4606223B21682051
:100CB000FFF768FF0746BFB99DF801009DF80010D7
:100CC00040EA012000B220809DF803009DF8021048
:100CD00040EA012000B228809DF805009DF804102C
:100CE00040EA012000B230803846BDE8FC812DE9A1
:100CF000F04105460E461746984600F06FF8002171
:100D000041EA4501C8B200F0E6F800F092F820B1DF
:100D100000F079F80120BDE8F081304600F0DBF802
:100D200000F087F800240CE018F8040000F0D3F875
:100D300000F07FF818B100F066F80120EBE7601CC6
:100D4000C4B2BC42F0DB00F05EF80020E3E7000034
:100D5000000C01408C81214200407540A4703D0A86
:100D6000D74342400000C84210B5022004F059F8B1
:100D700010BD08B50121042004F0E6FC3020ADF8D8
:100D8000000010208DF8030003208DF80200694652
:100D9000744804F01DFA3021724804F0C6FA08BD08
:100DA00008B51020ADF8000003208DF8020048209F
:100DB0008DF8030069466B4804F00AFA08BD08B5CF
:100DC0001020ADF8000003208DF8020010208DF8EF
:100DD00003006946634804F0FBF908BD10B5FFF74E
:100DE000EEFF0120604908606049C1F89401FFF7F7
:100DF000BBFF00205C490860FFF7B6FF00205B499D
:100E0000C1F8940110BD10B5FFF7D9FF0020564975
:100E1000091D08605549C1F89001FFF7A5FF0120A1
:100E20005149091D08605149C1F89001FFF79CFF25
:100E300010BD10B50024FFF7B3FF01204A49086038
:100E4000FFF792FF01204949C1F89401FFF78CFF99
:100E500007E0601CC4B2FA2C03DDFFF7D4FF0120C9
:100E600010BD4148803800680028F2D13E49091D74
:100E7000086000BFF4E710B500203B49091D086079
:100E8000FFF79DFF00203949C1F89001FFF76CFF83
:100E900001203549091D0860FFF766FF002033492E
:100EA000C1F8940110BD10B500202F49091D08603C
:100EB000FFF785FF01202D49C1F89001FFF754FF8E
:100EC00001202949091D0860FFF74EFF002027492E
:100ED000C1F8940110BD70B50446FFF770FF002003
:100EE0002149091D0860002512E0E0091E4908603B
:100EF0006006040E01201D49C1F89401FFF734FF7C
:100F000000201949091D0860FFF72EFF681CC5B2B3
:100F1000082DEADB70BD70B505460024FFF740FFE1
:100F2000002615E000201049091D0860FFF71CFF8E
:100F300001200E49C1F894016006040E0A48803869
:100F4000006808B1601CC4B2FFF70EFF701CC6B287
:100F5000082EE7DB15B9FFF7A6FF01E0FFF78BFFCF
:100F6000204670BD0008014090012142000021424E
:100F700038B50446FB4890F82400C0B114B10220F3
:100F8000009001E000200090F64A1268D17BF54AFB
:100F9000526810786B460122FFF7A9FE10B14FF09E
:100FA000FF3038BD9DF80010EE48417423E0ED4855
:100FB000807A10B94FF0FF30F3E724B1E948407C64
:100FC00008B10020EDE714B10120009001E00020FD
:100FD0000090E44A1268D17BE24A526810786B466E
:100FE0000122FFF784FE10B14FF0FF30D9E79DF8E2
:100FF0000010DC4841740020D3E738B5002419E024
:10100000D8480068C07AA04204D0D6480068407D25
:10101000A04200D10CE0D349496808786B46012210
:101020002146FFF7AFFD10B14FF0FF3038BD00BFD4
:10103000601CC4B2CB4840680079A042E0DC0020CC
:10104000F4E770B504460D46C6480068C07AA04271
:1010500004D0C4480068407DA04202D14FF0FF3068
:1010600070BDC04840680079A04202DC4FF0FF30FC
:10107000F6E7BC49496808782B4601222146FFF76C
:1010800081FDEDE738B50446B64890F82300A0424C
:1010900001D1002038BD14B13020009001E00020C3
:1010A0000090B048807C20B19DF8000040F0020024
:1010B0000090AC4890F8220020B19DF8000040F06C
:1010C00080000090A74A1268117DA64A52681078E5
:1010D0006B460122FFF70BFE10B14FF0FF30D9E74E
:1010E000A04880F823400020D4E738B5044604F037
:1010F000700010B10120009005E014B100200090B4
:1011000001E040200090974A1268917C954A52680D
:1011100010786B460122FFF7EAFD20B100219148CB
:101120008172481E38BD9DF8000020F040018D48B6
:1011300001730020009004F0400020B99DF80000E9
:1011400040F00400009004F0200020B99DF8000059
:1011500040F00200009004F0100020B99DF800005B
:1011600040F00100009004F0080020B99DF8000054
:1011700040F0380000907B4A1268D17C794A52686E
:1011800010786B460122FFF7B2FD20B100217548AF
:101190008172481EC6E724B1082C02D00020FFF758
:1011A00071FF7048847200210175322003F05DFEEA
:1011B0000020B7E738B504466A48807CA04201D1D8
:1011C000002038BD002C46D0664A12681179654A65
:1011D000526810786B460122FFF7D4FC10B14FF033
:1011E000FF30EEE79DF8000020F0200000905D4AFF
:1011F000126811795B4A526810786B460122FFF73A
:1012000076FD10B14FF0FF30DBE7032003F02DFE39
:1012100002200090534890F8220020B19DF8000071
:1012200040F0800000904F4890F8230020B19DF8D6
:10123000000040F0300000904A4A1268117D494A8F
:10124000526810786B460122FFF751FD002851D0FB
:101250004FF0FF30B5E7434A12681179414A5268AE
:1012600010786B460122FFF78DFC10B14FF0FF3074
:10127000A7E73C48807A00F0010028B19DF8000003
:1012800040F02000009004E09DF8000020F02000D5
:101290000090344A12681179324A526810786B46CD
:1012A0000122FFF724FD10B14FF0FF3089E7032042
:1012B00003F0DBFD2B4890F8220010B18020009055
:1012C00001E000200090274890F8230020B19DF80D
:1012D000000040F030000090224A1268117D214A3F
:1012E000526810786B460122FFF701FD10B14FF0F4
:1012F000FF3066E71B488474002062E708B5194890
:10130000807A10B94FF0FF3008BD00200090154AD8
:101310001268D17B134A526810786B460122FFF79E
:10132000E6FC10B14FF0FF30EEE70E4A126851793B
:101330000C4A526810786B460122FFF7D8FC10B1B6
:101340004FF0FF30E0E7074A12681179054A52680A
:1013500010786B460122FFF7CAFC28B14FF0FF302E
:10136000D2E7000048000020F74890F82400002849
:1013700053D00C200090F44A12681179F24A526856
:1013800010786B460122FFF7B2FC10B14FF0FF302E
:10139000BAE7322003F069FDC0200090EA48807A65
:1013A00000F0010020B19DF8000040F02000009006
:1013B000E54A12681179E44A526810786B460122B6
:1013C000FFF795FC10B14FF0FF309DE7DE48407C01
:1013D00010B10220009001E000200090DA4A12686B
:1013E000D17BD94A526810786B460122FFF77FFC07
:1013F00010B14FF0FF3087E700200090D24A12680A
:101400005179D14A526810786B460122FFF76FFC80
:10141000002855D04FF0FF3076E704200090CA4AEC
:1014200012681179C84A526810786B460122FFF79A
:101430005EFC10B14FF0FF3066E7C348807C20B9F6
:10144000C148807A00F0010010B94020009001E00E
:1014500060200090BC4A12681179BB4A526810782B
:101460006B460122FFF743FC10B14FF0FF304BE712
:10147000322003F0FAFCB448407C10B10120009007
:1014800001E000200090B04A1268D17BAE4A526859
:1014900010786B460122FFF72AFC10B14FF0FF30A5
:1014A00032E7A94A12685179A74A52681078A64BC8
:1014B00010330122FFF71BFC10B14FF0FF3023E780
:1014C000002021E770B50446002624F001049E4860
:1014D00090F8240008B1002070BD9B48807A10B9B4
:1014E0004FF0FF30F8E79848057C807A2040964915
:1014F00008740846007CA04202D04FF0FF3600E09E
:10150000002614B99048007D18B10120FFF730FD86
:1015100002E00020FFF72CFD3CB1FFF7EFFE20B109
:10152000894805744FF0FF30D6E73046D4E738B528
:1015300004468548807A10B94FF0FF3038BDBC2C86
:1015400002DB0120009015E0622C02DB02200090FB
:1015500010E02A2C02DB032000900BE0142C02DBAD
:101560000420009006E00A2C02DB0520009001E038
:10157000062000907448C07A9DF80010884201D17E
:101580000020DBE7704A126891786F4A5268107841
:101590006B460122FFF7ABFB10B14FF0FF30CDE7F8
:1015A0009DF800106848C1720020C7E738B50446AE
:1015B000282C02DD4FF0FF3038BDDCB90020FFF7EA
:1015C00061FD00208DF8000007208DF801005E4AC3
:1015D0001268917C5C4A526810786B460222FFF7D1
:1015E00086FB10B14FF0FF30E6E700215648017549
:1015F0000020E1E70120FFF745FD20208DF80000E5
:10160000012C06D100208DF801000520FFF78FFF87
:1016100017E0052C06DC01208DF801000520FFF7FE
:1016200086FF0EE0142C06DC02208DF801000A2053
:10163000FFF77DFF05E003208DF801001420FFF780
:1016400076FF9DF80100072101EB8010C0B28DF8F4
:1016500001003D4A1268917C3B4A526810786B4603
:101660000222FFF744FB10B14FF0FF30A4E708213E
:101670003548817200210173012101750020FFF7B7
:1016800021FF002098E738B504462F48807A10B92A
:101690004FF0FF3038BD2C4890F8240010B14FF0C7
:1016A000FF30F7E72848007D50B134B1282C04DC26
:1016B000E0B2FFF77BFF0020ECE70020FFF776FFAA
:1016C000042C01DA042404E0B4F57A7F01DD4FF440
:1016D0007A744FF47A7090FBF4F0401EC0B2009020
:1016E000194A12685178184A526810786B460122DC
:1016F000FFF7FDFA10B14FF0FF30CBE79DF8000087
:10170000401C4FF47A7191FBF0F081B20E48C18118
:101710000146C9894810FFF70AFF0020BAE738B52B
:1017200004460948807A10B94FF0FF3038BD022CCA
:1017300006D0042C0AD0082C0BD0102C0FD10BE0B3
:10174000002000900EE000004800002008200090DB
:1017500008E01020009005E01820009002E04FF013
:10176000FF30E3E700BFF848407A9DF80010B0EB87
:10177000E10F01D10020D9E7F34A1268D179F24A8A
:10178000526810786B460122FFF7B1FA10B14FF0A2
:10179000FF30CBE79DF80000C110EB4841720020FC
:1017A000C4E738B50446E848807A10B94FF0FF30F6
:1017B00038BDFA2C09D0B4F5FA7F09D0B4F57A7F98
:1017C00009D0B4F5FA6F0CD108E0002000900BE0CE
:1017D0000820009008E01020009005E018200090FC
:1017E00002E04FF0FF30E3E700BFD748007A9DF8F2
:1017F0000010B0EBE10F01D10020D9E7D24A126806
:101800009179D14A526810786B460122FFF76FFA3E
:1018100010B14FF0FF30CBE79DF80000C010CA496F
:1018200008720020C4E71CB580208DF80000C64A6D
:101830001268917CC44A526810786B460122FFF707
:1018400056FA10B14FF0FF301CBD642003F00DFBC1
:1018500000208DF80000BC4A1268917CBA4A526898
:1018600010786B460122FFF742FA10B14FF0FF30BB
:10187000EAE7B54A1268917DB34A526810786B4620
:101880000622FFF77FF910B14FF0FF30DCE79DF83B
:101890000500C007400F9DF8031001F0010140EA68
:1018A00041009DF8011001F0010140EA010474B10A
:1018B000012C03D10121A448C17427E0022C03D1DB
:1018C0000021A148C17421E04FF0FF30BCE79E4ADF
:1018D0001268D1789C4A526810786B460122FFF753
:1018E00051F910B14FF0FF30AEE79DF8000000F065
:1018F0000F0414B94FF0FF30A6E7042C03D10121E7
:101900009148C17402E000218F48C174FF218E48C4
:101910008172FF208C490872FF218B484172C1728D
:101920004FF6FF71C181FF210174817401210173A0
:1019300080F82210002180F82310417501751630BF
:10194000016041608160163880F8241080F825100D
:10195000C1844FF4FA60FFF724FF10B14FF0FF305D
:1019600072E70220FFF7DBFE10B14FF0FF306BE7AC
:101970002A20FFF7DCFD10B14FF0FF3064E7322082
:10198000FFF781FE10B14FF0FF305DE70020FFF759
:1019900099FD10B14FF0FF3056E70020FFF70AFC29
:1019A00010B14FF0FF304FE70020FFF79EFB002003
:1019B0004AE770477CB504460D466348807A00F0DC
:1019C000700010B94FF0FF307CBD5F4A1268117B88
:1019D0005D4A526810786B460622FFF7D3F810B1C3
:1019E0004FF0FF30F0E79DF801009DF8001040EA4D
:1019F000012000B220809DF803009DF8021040EA0B
:101A0000012000B260809DF805009DF8041040EAB6
:101A1000012000B2A08015B12846FFF7CAFF0020C0
:101A2000D2E77CB504460D464748807A00F00800AE
:101A300010B94FF0FF307CBD434A1268517B424AD7
:101A4000526810786B460622FFF79CF810B14FF0F1
:101A5000FF30F0E79DF801009DF8001040EA0120FA
:101A600000B220809DF803009DF8021040EA01209A
:101A700000B260809DF805009DF8041040EA012046
:101A800000B2A08015B12846FFF793FF0020D2E7EF
:101A90002DE9FE4F05460C462B48807A18B94FF0C9
:101AA000FF30BDE8FE8F284A1268917B264A5268B3
:101AB000107802AB0222FFF765F810B14FF0FF304B
:101AC000EFE79DF809009DF8081040EA012006B2F2
:101AD00014B12046FFF76DFF1B494968C88806F01E
:101AE000DBFC194901904968B1F9080006F0BCFC1B
:101AF0008346304606F0B8FC5946009006F01CFEBE
:101B00008246019906F07EFB8146104906F00CFBE7
:101B100080464FF08F4106F007FD074606F068FC4F
:101B200028600020BDE710B588B004461CB94FF00E
:101B3000FF3008B010BD206850B9606840B9A06897
:101B400030B90020F5E700004800002000000C42FA
:101B5000FA494968087806AB03221146FFF712F8E4
:101B600010B14FF0FF30E4E79DF81800082101EBB9
:101B7000201000F00F00ADF800009DF8190001EBF7
:101B8000201000F00F00ADF802009DF81A0001EBE4
:101B9000201000F00F00ADF8040020684100BDF9EE
:101BA0000000403091FBF0F000B2ADF8100060682A
:101BB0004100BDF90200403091FBF0F000B2ADF8F9
:101BC0001200A0684100BDF90400403091FBF0F024
:101BD00000B2ADF81400D9494968087806AB06226E
:101BE0001146FEF7CFFF10B14FF0FF30A1E79DF88F
:101BF00019009DF8181040EA012000B2ADF8080065
:101C00009DF81B009DF81A1040EA012000B2ADF8C3
:101C10000A009DF81D009DF81C1040EA012000B24A
:101C2000ADF80C00BDF81000BDF80810084400B273
:101C3000ADF81000BDF81200BDF80A10084400B25B
:101C4000ADF81200BDF81400BDF80C10084400B245
:101C5000ADF81400BDF81000000A8DF81800BDF8AA
:101C60001000C0B28DF81900BDF81200000A8DF8FE
:101C70001A00BDF81200C0B28DF81B00BDF81400A8
:101C8000000A8DF81C00BDF81400C0B28DF81D00CC
:101C9000AA494968087806AB06221146FFF727F8DB
:101CA00010B14FF0FF3044E7002042E70146A3485F
:101CB000007A30B1012807D0022809D003280FD1BB
:101CC0000AE0FA2008800EE04FF4FA7008800AE07B
:101CD0004FF47A70088006E04FF4FA60088002E062
:101CE0000020088000BF00BF0020704701469348D5
:101CF000407A30B1012807D0022808D003280CD13F
:101D000008E0022008700BE00420087008E00820BA
:101D1000087005E01020087002E04FF0FF307047B7
:101D200000BF8648C07C18B108784006000E0870D5
:101D30000020F4E701468148C07A082817D2DFE87E
:101D400000F01704070A0D101318BC20088013E0D8
:101D50006220088010E02A2008800DE0142008800E
:101D60000AE00A20088007E00520088004E000BFA0
:101D700000BF0020088000BF00BF00207047014660
:101D80006E4890F8240010B14FF0FF3070476B4858
:101D9000C08908800020F9E7014600200880401E25
:101DA000704701464FF0FF30704701466348007AA4
:101DB00030B1012807D0022808D003280CD108E050
:101DC0005F4808600BE05F48086008E05E48086014
:101DD00005E05E48086002E04FF0FF30704700BF4A
:101DE0000020FBE701465548407A30B1012808D071
:101DF00002280AD0032810D10BE04FF4804008805D
:101E00000EE041F69C7008800AE04FF48050088094
:101E100006E04FF40060088002E04FF0FF307047AA
:101E200000BF4648C07C10B10888401008800020E0
:101E3000F5E701464148007C0870002070470146E4
:101E40003E48807A10B10120087001E0002008703F
:101E50000020704738B504463848807A10B94FF0F2
:101E6000FF3038BD354A1268117C344A5268107808
:101E70006B460222FEF786FE10B14FF0FF30F0E70E
:101E80009DF801009DF8001040EA012000B220807A
:101E90000020E6E72DE9FE4F0746884692461D469C
:101EA000DDF830B000260024244890F8240010B15A
:101EB000601EBDE8FE8F002028702048807A10B98F
:101EC0004FF0FF30F5E71D48007C10B94FF0FF30B0
:101ED000EFE71A48007C00F0400008B1B01CC6B221
:101EE0001648007C00F0200008B1B01CC6B21348B0
:101EF000007C00F0100008B1B01CC6B20F48007C96
:101F000000F0080008B1B01DC6B20C4A1268917A00
:101F10000A4A526810786B460222FEF733FE10B16F
:101F20004FF0FF30C5E79DF801009DF8001040EA32
:101F30000129B1450CDA0020BBE700004800002071
:101F400000000343000083423333034233338341B1
:101F5000FC4840684088B9EB600F17DDF94A126809
:101F6000517CF84A526810786B460122FEF70AFE4F
:101F700010B14FF0FF309CE79DF8000000F010001A
:101F800020B1FFF7BBF96FF0010092E75046FFF771
:101F900010FDEC4A1268D17AEA4A526810786B4612
:101FA0003246FEF7EFFD10B14FF0FF3081E799FBAD
:101FB000F6F0401E8BF8000000202870B4422AD0B2
:101FC000E048007C00F0080028B3601C1DF8000009
:101FD0001DF8041040EA012000B2A8F80000E01C3F
:101FE0001DF80010A01C1DF8000041EA002000B2FE
:101FF000A8F80200601D1DF80010201D1DF800004B
:1020000041EA002000B2A8F80400287840F0080057
:102010002870A01D84B2B44213D0CA48007C00F0DE
:10202000400070B1601C1DF800001DF8041040EA6B
:10203000012000B23880287840F040002870A01CB1
:1020400084B2B44213D0BF48007C00F0200070B1CD
:10205000601C1DF800001DF8041040EA012000B2C9
:102060007880287840F020002870A01C84B2B44208
:1020700013D0B448007C00F0100070B1601C1DF853
:1020800000001DF8041040EA012000B2B880287852
:1020900040F010002870A01C84B2002009E7F8B5B9
:1020A00004460F461646A74890F8240010B94FF092
:1020B000FF30F8BDA348807A10B94FF0FF30F8E741
:1020C000A04A1268917A9F4A526810786B460222A1
:1020D000FEF758FD10B14FF0FF30EAE79DF8010020
:1020E0009DF8001040EA0125A54203DA0020307077
:1020F000401EDEE7934840684088B5EB600F17DD6F
:10210000904A1268517C8F4A526810786B460122BF
:10211000FEF738FD10B14FF0FF30CAE79DF8000020
:1021200000F0100020B1FFF7E9F86FF00100C0E700
:10213000E2B2844B1B68D97A824B5B6818783B46C5
:10214000FEF720FD10B14FF0FF30B2E795FBF4F041
:10215000401E30700020ACE701467A4880F822101B
:10216000002070477CB5054676494968087801AB80
:1021700004220D21FEF706FD08B107207CBD9DF865
:102180000700C0F301109DF8041001F0E00140EADF
:10219000E1008DF800009DF80700C0F381009DF874
:1021A000051001F0E00140EAE1008DF801009DF822
:1021B000070000F003009DF8061001F0E00140EA7E
:1021C000E1008DF8020000241CE01DF8040018B99D
:1021D000002045F8240013E05B4845F8240006E0A1
:1021E00055F82400594906F09FF945F824001DF8D8
:1021F0000400401EC0B20DF804000028F0D100BF5A
:10220000601CC4B2032CE0DB0020B7E72DE9FE4FD1
:1022100006460F4600256846FFF7A4FF002442E06B
:1022200056F8240057F82410A0EB010ABAF1000F69
:1022300001DB514601E0CAF10001084606F014F93D
:1022400083464FF08F4105F0DDFF80465DF82400A6
:10225000002106F099F816D05DF82410404605F0EC
:10226000D1FF82464FF07E5106F066FA814629F092
:10227000004A3748416A504606F022FA12D201203D
:10228000A04005430EE03248C169404606F018F907
:1022900005D32F48016A404606F012FA02D2012007
:1022A000A0400543641C032CBADB2846BDE8FE8F22
:1022B0002DE9FC5F06460F4600252249496808784B
:1022C00001AB03220D21FEF75DFC10B10720BDE834
:1022D000FC9F9DF8040000F01F008DF804009DF89D
:1022E000050000F01F008DF805009DF8060000F0C5
:1022F0001F008DF80600002462E056F8240057F80D
:102300002410A0EB010BBBF1000F01DB594601E0EB
:10231000CBF10001084606F0A7F84FF08F4100907E
:1023200005F070FF814601A8005DC0B30849086848
:1023300006F0B2F883465946064805F063FF80462A
:102340000FE00000480000207B14AE3E1D5A843F81
:102350003C89000800B04C45FE49404606F0E4F8D0
:10236000804601A8005D401EC0B201A908550028A2
:10237000F2D14146484605F045FF83464FF07E5175
:1023800006F0DAF982462AF0004BF3488169584694
:1023900006F096F913D20120A04005430FE0FFE7B5
:1023A000ED480169484606F08BF805D3EA484169D3
:1023B000484606F085F902D20120A0400543641C7E
:1023C000032C9ADB284682E72DE9F04F87B00546BB
:1023D0000C46914601208DF8100000208DF8110068
:1023E000DE4A1268917CDD4A5268107804AB022202
:1023F000FEF77DFC20B14FF0FF3007B0BDE8F08F55
:10240000C82002F032FD00208DF81000D34A126877
:10241000D17BD24A5268107804AB0122FEF767FCE8
:1024200010B14FF0FF30E8E7CC4A12685179CB4A3F
:102430005268107804AB0122FEF759FC10B14FF03E
:10244000FF30DAE7C54A1268917CC44A52681078B6
:1024500004AB0122FEF74BFC10B14FF0FF30CCE78C
:10246000BE4A1268D17DBD4A5268107804AB012281
:10247000FEF73DFC10B14FF0FF30BEE7B74A1268DF
:102480001179B64A5268107804AB0122FEF72FFC8E
:1024900010B14FF0FF30B0E70C208DF81000AF4ABC
:1024A00012681179AD4A5268107804AB0122FEF728
:1024B0001EFC10B14FF0FF309FE70F2002F0D5FC5B
:1024C000A648806A407A8DF81000A44A1268917874
:1024D000A24A5268107804AB0122FEF708FC10B142
:1024E0004FF0FF3089E79D48806A007A8DF8100030
:1024F0009A4A12685178994A5268107804AB0122BE
:10250000FEF7F5FB10B14FF0FF3076E7B9F1000FA1
:1025100007D09248806A807A40F0E0008DF8100081
:1025200004E08E48806A807A8DF810008B4A126829
:1025300091798A4A5268107804AB0122FEF7D7FBE2
:1025400010B14FF0FF3058E7B9F1000F07D08348C2
:10255000806AC07A40F0E0008DF8100003E07E4809
:10256000C07A8DF810007D4A1268D1797B4A526892
:10257000107804AB0122FEF7BAFB10B14FF0FF3028
:102580003BE7B9F1000F02D0C82002F06EFC4020FA
:102590008DF81000714A12681179704A52681078EB
:1025A00004AB0122FEF7A3FB10B14FF0FF3024E78C
:1025B00078208DF81000694A12685179674A52688C
:1025C000107804AB0122FEF792FB10B14FF0FF3000
:1025D00013E76149888902F048FC00208DF810005B
:1025E0005E4A126851795D4A5268107804AB012244
:1025F000FEF77DFB10B14FF0FF30FEE6574A126840
:10260000917A564A5268107804AB0222FEF7BAFA61
:1026100010B14FF0FF30F0E69DF811009DF810105A
:1026200040EA012B0C209BFBF0F0C6B20020A86012
:1026300068602860A06060602060824665E0474A6C
:102640001268D17A454A5268107804AB0C22FEF722
:1026500099FA10B14FF0FF30CFE69DF811009DF8C8
:10266000101040EA012000B2ADF808009DF81300F8
:102670009DF8121040EA012000B2ADF80A009DF862
:1026800015009DF8141040EA012000B2ADF80C00CE
:10269000BDF90810206808442060BDF90A10606880
:1026A00008446060BDF90C10A0680844A0609DF863
:1026B00017009DF8161040EA012000B2ADF80000A6
:1026C0009DF819009DF8181040EA012000B2ADF8FD
:1026D00002009DF81B009DF81A1040EA012000B28C
:1026E000ADF80400BDF90010286808442860BDF961
:1026F0000210686808446860BDF90410A8680844BE
:10270000A8600AF1010000F0FF0AB24597DB124809
:10271000D0F800C02868C117090441EA1041070435
:1027200062460023384604F0F3F932460023CDE92F
:10273000020104F0EDF928600748D0F800C068688D
:10274000C117090441EA10410704624600233846D4
:1027500006E0000054E3853F3C8900084800002063
:1027600004F0D6F932460023CDE9020104F0D0F995
:102770006860FE48D0F800C0A868C117090441EAA3
:102780001041070462460023384604F0C1F932467E
:102790000023CDE9020104F0BBF9A860F348D0F8AA
:1027A00004C02168C817000440EA11480F046246BB
:1027B00000233846414604F0ABF932460023CDE908
:1027C000020104F0A5F92060E848D0F804C0606870
:1027D000C117090441EA1041070462460023384644
:1027E00004F096F932460023CDE9020104F090F995
:1027F0006060DE48D0F804C0A068C117090441EA4F
:102800001041070462460023384604F081F932463D
:102810000023CDE9020104F07BF9A060A068002844
:1028200004DDA068A0F58030A06003E0A06800F59A
:102830008030A0600020E0E538B50446CC4890F830
:102840002400A04201D1002038BD24B3C84890F82C
:10285000250010B94FF0FF30F6E70020FEF788FBA7
:102860000020FEF7A7FCC249C88CFEF70CFF002031
:102870000090BF49496808786B4601222321FEF782
:1028800036FA0121BA4880F824100120FEF770FBC7
:10289000FEF734FD13E00020FEF76AFBB448007C2D
:1028A0000090B349496808786B4601222321FEF75E
:1028B0001EFA0021AE4880F82410FEF71FFD00200C
:1028C000C2E72DE9F04F8DB083460F4602200C90F1
:1028D000A74890F8240020B10020FFF7ADFF0126A3
:1028E00000E0002603A8FFF7E1F905A8FFF7FEF9CD
:1028F00001A8FFF71FFA02A8FFF741FA9C4890F8D9
:102900000AA004A8FFF795FA002407E00022394640
:102910005846FFF759FD00B902E0641C022CF5DBB4
:1029200000BF022C01D1002528E0002407E001228D
:1029300006A909A8FFF748FD00B902E0641C022CB3
:10294000F5DB00BF022C01D1002517E006A93846AF
:10295000FFF75CFC00F0FF0809A95846FFF7A8FC48
:1029600000F0FF090025B9F1000F01D145F0010584
:10297000B8F1000F01D145F0020500BFFF207C49EE
:102980000872FF217A484172C1724FF6FF71C1810E
:10299000FF218172017401210173BDF80C00FEF763
:1029A00000FF9DF81400FEF7BAFEBDF80400FEF724
:1029B000BEFDBDF80800FEF766FE5046FEF795FB2B
:1029C0009DF81000FEF77EFD16B10120FFF734FFE1
:1029D00028460DB0BDE8F08FF8B504460D46164602
:1029E00016B94FF0FF30F8BD6148807A10B94FF04A
:1029F000FF30F8E720128DF80000E0B28DF80100FA
:102A00009DF8010028445A4949684989884202DDF5
:102A10004FF0FF30E7E7564A1268117E544A526879
:102A200010786B460222FEF762F910B14FF0FF30CA
:102A3000D9E7EAB24E4B1B68597D4D4B5B6818785D
:102A40003346FEF754F910B14FF0FF30CBE70020CA
:102A5000C9E7F8B504460D46164616B94FF0FF30E3
:102A6000F8BD4348807A10B94FF0FF30F8E72012E4
:102A70008DF80000E0B28DF801009DF801002844B7
:102A80003B4949684989884202DD4FF0FF30E7E75A
:102A9000374A1268117E364A526810786B46022215
:102AA000FEF725F910B14FF0FF30D9E7EAB2304B0D
:102AB0001B68597D2E4B5B6818783346FEF762F829
:102AC00010B14FF0FF30CBE70020C9E72DE9F0430C
:102AD00085B005460E4690469946254890F8250053
:102AE00020B14FF0FF3005B0BDE8F08316B94FF0CC
:102AF000FF30F8E7002423E0281B102801DD102018
:102B000000E0281B87B2321939462046FFF764FFE0
:102B100010B14FF0FF30E6E701AA39462046FFF733
:102B200098FF10B14FF0FF30DDE730193A4601A9A8
:102B300004F012F810B16FF00100D4E7E01984B28C
:102B4000AC42D9DB4FEA28208DF8000008F0FF00E6
:102B50008DF80100064A1268917E054A5268107885
:102B60006B460222FEF7C3F838B103E03C89000847
:102B7000480000204FF0FF30B5E70121FE4880F803
:102B80002510A0F826900020ADE70146FA4890F8FD
:102B900024000870002070474FF0FF307047024655
:102BA0004FF0FF30704701464FF0FF307047F8B5E7
:102BB00005460F461446002C70D0B5F5FF5F01DDC9
:102BC000FF2605E0202D01DA012601E0C5F34716B6
:102BD00007B90127282C02DD4FF0FF30F8BDE64889
:102BE000407D28BBE44890F8240038B10020FFF76E
:102BF00023FE0121E04880F8201003E00021DE4898
:102C000080F82010DC481630FFF750F8DA4818300A
:102C1000FFF76CF8D8481A30FFF78CF8D6481C300C
:102C2000FFF7ADF8D448817A81771F30FFF701F9BB
:102C30000020FEF79DF90020FEF7B8FC00208DF87B
:102C40000000CD4A12689178CB4A526810786B46E2
:102C50000122FEF74CF810B14FF0FF30BEE74020E4
:102C60008DF80000C44A1268D17BC34A52681078BC
:102C70006B460122FEF73BF800B165E08DF800607D
:102C80008DF80170BC4A1268117ABB4A52681078FC
:102C90006B460222FEF72BF808B155E047E005200D
:102CA00002F0E3F8B448407A072101EBC000C0B25B
:102CB0008DF80000B04A1268D179AF4A5268107896
:102CC0006B460122FEF713F800B13DE020208DF89D
:102CD0000000012C03D100208DF801000EE0052C2E
:102CE00003DC01208DF8010008E0142C03DC022035
:102CF0008DF8010002E003208DF801009DF801002D
:102D0000072101EB8010C0B28DF801009A4A1268C9
:102D1000917C994A526810786B460222FDF7E7FFD2
:102D200000B111E0012194484175002056E7924A14
:102D30001632002103E0505C00B105E0491C0C296B
:102D4000F9D34FF0FF3049E7FF208B490872FF218C
:102D500089484172C1724FF6FF71C181FF218172B2
:102D60000174012101730146887FFEF7BEF9824993
:102D7000C88AFEF716FD8049087EFEF7D0FC7E4922
:102D8000488BFEF7D4FB7C49888BFEF77CFC7A49A4
:102D9000C87FFEF797FB784890F8200010B101201B
:102DA000FFF74AFD002174484175002016E770B511
:102DB00088B002A905A8FFF784FD0446032C3ED184
:102DC00001A8FEF7F2FF059805F04EFB06460199B3
:102DD00005F0AAFB054605F00BFB0590069805F0EB
:102DE00043FB0646019905F09FFB054605F000FBF5
:102DF0000690079805F038FB0646019905F094FB0C
:102E0000054605F0F5FA079005A800F0BEFA6846F9
:102E1000FEF7E8FFBDF80010029848430290BDF8A5
:102E20000010039848430390BDF8001004984843ED
:102E3000049002A800F03CFB002008B070BD012007
:102E4000FBE7014691F90020002A01DD00201EE089
:102E500091F90020002A01DA042018E091F90120FC
:102E6000002A01DD012012E091F90120002A01DA97
:102E700005200CE091F90220002A01DD022006E085
:102E800091F90220002A01DA062000E007207047AD
:102E900010B504462046FFF7D4FF0346E01CFFF7B9
:102EA000D0FF43EAC00083B2A01DFFF7CAFF43EA88
:102EB000801083B2184610BD70B50024FDF759FF8D
:102EC000FEF7B1FC002840D17820FEF70EF9C4B21D
:102ED0000CB1012070BD7820FEF7F4FAC4B20CB139
:102EE0000220F7E76420FEF7CEFBC4B20CB103204A
:102EF000F0E700F0AFF9C4B20CB10420EAE71F48D4
:102F0000FFF7C6FF054600F0AFF9C4B20CB10520CB
:102F1000E0E740F2731000F0E8FDC4B20CB1062007
:102F2000D8E7642000F05AFBC4B20CB10720D1E707
:102F3000FFF73DFF04460CB10820CBE70120FFF767
:102F40007BFCC4B21CB10920C4E70A20C2E7002000
:102F5000C0E72DE9F04F9BB004460D4616461F46CC
:102F60004FF07E584FF000094FF0000A4FF0000B71
:102F700014A815A91AAB03E0480000208400002023
:102F800010AACDE9001016A918A800F00DFF18B17D
:102F900001201BB0BDE8F08FBDF8540000F4807034
:102FA00000287CD0109805F05FFA4FF09D410F90FB
:102FB00005F028F98046119805F056FA4FF09D412A
:102FC0000F9005F01FF98146129805F04DFA4FF069
:102FD0009D410F9005F016F98246139805F044FACA
:102FE0004FF09D410F9005F00DF9834641464FF09B
:102FF000804005F099FA5146069005F095FA494649
:1030000008904FF0404005F08FFA5946069005F0C1
:103010008BFA0790089905F087F8099005F058F8A1
:10302000CDE90A0103F04EFF4FF066327F4BCDE948
:103030000C0104F03DFDCDE90E0104F071FA2060B1
:1030400051464FF0804005F06FFA5146019005F06F
:103050006BFA494603904FF0404005F065FA494647
:10306000019005F061FA0290039905F065FB4FF0BD
:103070007E51049005F058F8059005F029F8CDE947
:10308000080141464FF0804005F04EFA4946029053
:1030900005F04AFA514604904FF0804000E0C1E04C
:1030A00005F042FA5946029005F03EFA0390049961
:1030B00005F03AF8059005F00BF8CDE90601DDE9D9
:1030C000082304F047F90022594BCDE90A0104F026
:1030D000EFFC584A584BCDE90C0104F00FFBCDE949
:1030E0000E0104F01DFA28605946584605F01CFAF6
:1030F00051460690504605F017FA49460490484656
:1031000005F012FA41460290404605F00DFA019092
:10311000029905F009F80390049905F00DFB05905C
:10312000069905F009FB079004F0D2FFCDE90A01EA
:103130005946404605F0F8F951460590484605F0D5
:10314000F3F90490059904F0EFFF4FF080410690E9
:1031500005F0EAF9079004F0BBFFCDE90801DDE9CD
:103160000A2304F0F7F84FF06632304BCDE90C013A
:1031700004F09EFCCDE90E0104F0D2F92F4908605D
:103180002F4801682D48006805F0D6FA2D490F90A8
:1031900005F096FA05D82C480068401E2A490860B8
:1031A0000FE0274801682548006805F0C5FA27495F
:1031B0000F9005F085F904D823480068401C224987
:1031C0000860214909684FF4B47201FB02F005F070
:1031D0004BF90F90194801680F9804F0A5FF306073
:1031E0001648006816490860BDF9600005F03CF912
:1031F00017490F9005F006F83860BDF9620005F038
:1032000033F913490F9004F0FDFF24990860BDF9CC
:10321000640005F029F90E490F9004F0F3FF259999
:10322000086001E00220B4E60020B2E666A64C4049
:10323000008066404AD8124DFB21094074000020EE
:10324000780000200000A543800000200000A5C3F6
:103250003D0A834110B5C8234FF48062F74940F618
:10326000F630FFF733FC10BD10B586B00446F4A06D
:1032700000680390F3A000680290F3A0006801903A
:10328000F2A00068009004F0030003A9085C8DF828
:10329000140003A8C4F3C101405C8DF8150003A815
:1032A000C4F38111405C8DF8160004F0030002A9FC
:1032B000085C8DF8100002A8C4F3C101405C8DF8D1
:1032C000110002A8C4F38111405C8DF8120005AA18
:1032D000032140F22640FFF77FFB18B14FF0FF308B
:1032E00006B010BD04AA032140F22A40FFF774FB88
:1032F00010B14FF0FF30F3E701980590009804906B
:1033000004F0040058B19DF8140040F001008DF85D
:1033100014009DF8100040F001008DF8100004F03A
:10332000200058B19DF8150040F001008DF81500FF
:103330009DF8110040F001008DF8110004F4807038
:1033400058B19DF8160040F001008DF816009DF868
:10335000120040F001008DF8120005AA03214FF47D
:103360008860FFF739FB10B14FF0FF30B8E704AACF
:10337000032140F23140FFF72FFB10B14FF0FF3037
:10338000AEE7B34804810020AAE71FB50446B04861
:10339000007A00F0030054F820000190AC48007A55
:1033A00000F0040010B1019840420190A848007A52
:1033B000C0F3C10054F820000290A548007A00F044
:1033C000200010B1029840420290A148007AC0F358
:1033D000811054F8200003909D48008900F480700B
:1033E00010B10398404203909A49019880FB010173
:1033F000800F40EA810001909649029880FB0110FD
:10340000820042EA917002909249039880FB011079
:10341000820042EA917003900198000E8DF800003E
:103420000198000C8DF801000198000A8DF8020047
:103430000198C0B28DF803006A4604214FF47470FD
:10344000FFF7CAFA18B14FF0FF3004B010BD029870
:10345000000E8DF800000298000C8DF80100029813
:10346000000A8DF802000298C0B28DF803006A4687
:1034700004214FF47570FFF7AFFA10B14FF0FF3031
:10348000E3E70398000E8DF800000398000C8DF818
:1034900001000398000A8DF802000398C0B28DF86D
:1034A00003006A4604214FF47670FFF795FACCE7E3
:1034B00070B588B0064601A8FEF794FCBDF804007C
:1034C0000021C90341EA5045C4036148007A00F075
:1034D000030056F8200005905D48007A00F00400D3
:1034E00010B10598404205905948007AC0F3C100D8
:1034F00056F8200006905648007A00F0200010B1DF
:103500000698404206905248007AC0F3811056F85F
:10351000200007904E48008900F4807010B1079891
:10352000404207900598C117A0FB042301FB04311A
:1035300000FB0510810041EA927005900698C117C2
:10354000A0FB042301FB043100FB0510810041EACC
:10355000927006900798C117A0FB042301FB043169
:1035600000FB0510810041EA927007900598000E5B
:103570008DF808000598000C8DF809000598000AE0
:103580008DF80A000598C0B28DF80B000698000E61
:103590008DF80C000698000C8DF80D000698000AB6
:1035A0008DF80E000698C0B28DF80F000798000E37
:1035B0008DF810000798000C8DF811000798000A8C
:1035C0008DF812000798C0B28DF8130002AA0C21E2
:1035D0004FF42570FFF700FA08B070BD30B585B024
:1035E00004461DA207CA02AB07C3C82C03DD4FF077
:1035F000FF3005B030BDC82090FBF4F0401E85B20E
:10360000280A8DF80000E8B28DF801006A46022110
:1036100040F21620FFF7E0F910B14FF0FF30E8E775
:1036200002AA0C2140F6C120FFF7D6F910B14FF0E5
:10363000FF30DEE7064884810020DAE7648900086D
:103640004CCD6C000CC92C00365676002646660020
:103650000401002009E3CA02FEF2ABC4AAF1DFDFD5
:10366000BBAFDFDF0146FC4880890880002070473F
:103670002DE9FC4706460F4606F0070010B1B7F5E6
:10368000C86F03DD4FF0FF30BDE8FC87384604F01B
:1036900003FF8146F14904F0B5FD80466846FEF718
:1036A00025FB9DF80000022806D0042816D0082823
:1036B00026D0102848D135E04FF08D41404604F027
:1036C00033FF814604F0B0FE84B2E549404604F081
:1036D0002BFF814604F0A8FE85B238E04FF08C4104
:1036E000404604F021FF814604F09EFE84B2DD498D
:1036F000404604F019FF814604F096FE85B226E0AC
:103700004FF08B41404604F00FFF814604F08CFEE1
:1037100084B2D549404604F007FF814604F084FE98
:1037200085B214E04FF08A41404604F0FDFE814628
:1037300004F07AFE84B2CD49404604F0F5FE81469D
:1037400004F072FE85B202E04FF0FF309CE700BF4C
:1037500020128DF80400E0B28DF8050028128DF8D3
:103760000600E8B28DF8070006F00100A0B101AA3A
:1037700002214FF4EA70FFF72FF910B14FF0FF303C
:1037800082E70DF1060202214FF49270FFF724F94F
:1037900010B14FF0FF3077E706F00200A0B101AAA8
:1037A00002214FF4EC70FFF717F910B14FF0FF3022
:1037B0006AE70DF1060202214FF49470FFF70CF94D
:1037C00010B14FF0FF305FE706F00400A0B101AA8E
:1037D00002214FF4EE70FFF7FFF810B14FF0FF3009
:1037E00052E70DF1060202214FF49670FFF7F4F84C
:1037F00010B14FF0FF3047E7002045E738B50446E9
:103800000020009004F0010020B19DF8000040F07D
:103810003000009004F0020020B19DF8000040F05C
:103820000C00009004F0040020B19DF8000040F06E
:10383000030000906A4601214FF4A470FFF7CCF812
:1038400038BD38B50446012C01DA012402E0042C0D
:1038500000DD0424601EC0B200906A46012140F2DF
:103860004F10FFF7B9F838BD38B50446052094FB72
:10387000F0F085B228128DF80000E8B28DF8010052
:103880006A4602214FF4EF70FFF7A6F838BD38B54D
:103890000446052094FBF0F085B228128DF8000054
:1038A000E8B28DF801006A4602214FF4ED70FFF78F
:1038B00093F838BDF8B505460E464FF47A7095FB7F
:1038C000F0F000FB06F4200E8DF80000200C8DF8BF
:1038D0000100200A8DF80200E0B28DF803006A466C
:1038E00004214FF4AE70FFF777F8F8BD38B5044601
:1038F000052094FBF0F084B220128DF80000E0B2B5
:103900008DF801006A4602214FF4AD70FFF764F8AC
:1039100038BD38B50446052094FBF0F084B220127F
:103920008DF80000E0B28DF801006A4602214FF4E4
:10393000AC70FFF751F838BD38B5044614B94FF0F4
:10394000FF3038BD6A4604214FF45870FFF781F804
:1039500010B14FF0FF30F4E79DF8000000069DF82D
:10396000011040EA01409DF8021040EA01209DF854
:103970000310084320600020E3E738B50446200E1A
:103980008DF80000200C8DF80100200A8DF802004F
:10399000E0B28DF803006A4604214FF45870FFF737
:1039A0001BF838BD38B5044614B94FF0FF3038BDA8
:1039B0006A4604214FF47170FFF74BF810B14FF0D5
:1039C000FF30F4E79DF8000000069DF8011040EA82
:1039D00001409DF8021040EA01209DF803100843C1
:1039E00000EB8000800020600020E0E738B504464E
:1039F0001420B4FBF0F4200E8DF80000200C8DF89C
:103A00000100200A8DF80200E0B28DF803006A463A
:103A100004214FF47170FEF7DFFF38BD38B504465E
:103A200064B120208DF8000028208DF8010030209E
:103A30008DF8020038208DF8030004E0A322042151
:103A4000684603F0B5F86A46042140F69E20FEF76A
:103A5000C3FFFDF753FC38BD0401002000004843BC
:103A6000000040460000C045000040450000C04442
:103A700038B5044664B1C0208DF80000C2208DF82E
:103A80000100C4208DF80200C6208DF8030004E078
:103A90008B220421684603F08BF86A46042140F625
:103AA0009820FEF799FFFDF729FC38BD3EB5044686
:103AB0006CB1FDA1D1E900208968CDE90020029117
:103AC0006A4609214FF49760FEF786FF3EBDF9A2D2
:103AD000D2E900109268CDE9010200916A460921FD
:103AE0004FF49760FEF778FFF0E73EB504460220FA
:103AF0008DF80000CA208DF80100E3208DF8020047
:103B000009208DF803006A4604216820FEF764FF4F
:103B1000A3208DF8000004F0400048B1C0208DF8CB
:103B20000100C8208DF80200C2208DF8030006E0D5
:103B3000A3208DF801008DF802008DF8030004F435
:103B4000C07048B1C4208DF80400CC208DF8050069
:103B5000C6208DF8060006E0A3208DF804008DF83D
:103B600005008DF80600A3208DF807008DF80800E9
:103B70008DF809006A460A2140F6A720FEF72CFFBF
:103B800004F0030018B120208DF8000002E0D820D6
:103B90008DF800006A46012140F6B620FEF71CFFB2
:103BA00004F0200018B10120FFF780FF02E00020A0
:103BB000FFF77CFF04F4C07008B304F4807060B1B8
:103BC000B2208DF800008B208DF80100B6208DF812
:103BD00002009B208DF803000BE0B0208DF8000060
:103BE00080208DF80100B4208DF8020090208DF81F
:103BF00003006A46042140F6A220FEF7EDFE04F021
:103C0000010020B3F8208DF800006A4601214FF42E
:103C10000B60FEF7E1FEFA210720FFF729FD0720E0
:103C2000FFF7ECFD0120FFF70CFE6420FFF71CFE00
:103C30004FF4FA70FFF72BFEC821A148FFF73AFEB8
:103C40002820FFF753FE0A20FFF763FE08E0D82084
:103C50008DF800006A4601214FF40B60FEF7BCFEB0
:103C600004F0020018B1D9208DF8000002E0D8203D
:103C70008DF800006A46012140F23D70FEF7ACFE6F
:103C800004F0040018B10120FFF7F2FE02E000206A
:103C9000FFF7EEFE04F0100018B10120FFF7BEFEA2
:103CA00002E00020FFF7BAFE44F008008549488191
:103CB000FDF724FB00208349887304F0400018B10D
:103CC0000846807B801D887304F4C07020B17D4855
:103CD000807B801D7B49887304F0140020B17948F3
:103CE000807B10307749887304F0030020B1754859
:103CF000807B001D7349887300203EBD01467148DA
:103D000040890880002070472DE9F0410446E078A2
:103D100000F0C006E07800F03F05607800F0010098
:103D200098B1EF102846E91705EB5171C910A5EBC2
:103D3000C101491C01F0FF086248006820B16148D8
:103D4000414602683846904700BF607800F008009E
:103D500030B15C48406818B1B0115A4A5168884780
:103D60000020BDE8F08110B586B0044656A207CA0F
:103D700003AB07C357A207CA8DE80700012C09D07F
:103D8000022C0ED103AA0B2140F68220FEF724FE5E
:103D900006B010BD6A460B2140F68220FEF71CFEDD
:103DA000F6E74FF0FF30F3E72DE9F04F8DB007460F
:103DB000884615469946DDE9166B002400203080C0
:103DC0004049887B5A4605A9FEF769F918B1601E7B
:103DD0000DB0BDE8F08F3B48807A00F01400002859
:103DE00061D09DF8140000069DF8151040EA0140CE
:103DF0009DF8161040EA01209DF81710084328602E
:103E00009DF8180000069DF8191040EA01409DF841
:103E10001A1040EA01209DF81B10084368609DF8C5
:103E20001C0000069DF81D1040EA01409DF81E1080
:103E300040EA01209DF81F100843A8609DF820006B
:103E400000069DF8211040EA01409DF8221040EA4A
:103E500001209DF823100843E86004F11000C4B26B
:103E6000286800140190686800140290A868001483
:103E70000390E8680014049001984043029901FB04
:103E80000100039901FB0100049901FB010ABAF149
:103E9000706F02DBBAF1885F22DDFDF72FFA002098
:103EA0003080401E94E721E0B8AAB38DB4980D3558
:103EB0005D000000B8AAAAAAB088C3C5C700000068
:103EC00009E3CA0204010020D8B1B9F38BA391B66B
:103ED00009B4D900DAB1B9F38BA391B6DAB4DA0038
:103EE000B6F9000040F48070308000BF3448807A1A
:103EF00000F0400020B305A9601C085C095D40EAA1
:103F0000012000B2A8F8000005A9E01C095C05AA80
:103F1000A01C105C41EA002000B2A8F8020005A92C
:103F2000601D095C201D105C41EA002000B2A8F869
:103F30000400A01DC4B2B6F9000040F008003080B3
:103F40001F48408900F4C07008B305A9601C085CD4
:103F5000095D40EA012000B2388005A9E01C095C37
:103F600005AAA01C105C41EA002000B2788005A9D7
:103F7000601D095C201D105C41EA002000B2B88081
:103F8000A01DC4B2B6F9000040F0700030800C48AB
:103F9000807A00F0030018B105A90819FFF7B4FEF4
:103FA0004846FDF706FD002012E70146044801607F
:103FB0000020704701460248416000207047000021
:103FC000040100207FB505460C460121084601F09A
:103FD000C8FB0020ADF80A00ADF80600ADF80850A7
:103FE000ADF8044001A94FF0804001F057FF0122D5
:103FF0001146900702F0C9FA1C208DF8000001203C
:104000008DF8030000208DF8010003208DF80200D8
:10401000684601F006FE0121880702F09BFA7FBD89
:104020002DE9F04705460E4691461C46DDF820A0D6
:1040300095FBF6F006FB105048450DDC84F0004778
:10404000FC480168384604F03BFA2FD22146F94873
:10405000006804F035FA29D2F648006804F038F810
:1040600007460022F44B03F021FE0ED2F14800680F
:1040700004F02EF807460022F04B03F0DDFC04D2DA
:1040800000210846FCF7B4FB03E051465046FCF71C
:10409000AFFBEB480068401CE9490860084600682F
:1040A000CD283ADD0020E749086036E095FBF6F0C0
:1040B00006FB105048452CDC84F00047DD480168C1
:1040C000384604F0FDF905D22146DA48006804F0CC
:1040D000F7F91ED3DC49D748006804F0F1FA07D29B
:1040E000DA480022114603680068FCF7BAFB0CE0CE
:1040F000D749D048006804F0E3F906D2D34800223B
:10410000114603680068FCF7ACFB0020CC4908604E
:1041100003E051465046FCF76BFBBDE8F08738B52D
:104120000121880702F0DFFC002863D00121880705
:1041300002F0EAFCC7480068401CC6490860C24952
:10414000BC48006804F0BCFA03D20020C2490860F1
:1041500008E0BF49B748006804F0B2F902D2012074
:10416000BD490860B748006820B1BC480068401CE1
:10417000BA490860BA48007800287CD0B94800687D
:10418000401CB8490860B34800683221B0FBF1F226
:1041900001FB120000282DD1AA480068C0BB41F2E3
:1041A0000400AA490860B04AB049B148006800F06C
:1041B000D1F9AD48006AA54909684942884205DC41
:1041C000A24800684042A849086209E0A648006A7F
:1041D0009E490968884203DB9C480068A24908623E
:1041E000A449A348006804F06BF904D2A2494842EC
:1041F000FCF7FEFA64E19C4A126A944B1B68D118E2
:10420000994A126A914B1B68981AFCF7F1FA57E128
:10421000FFE78C4800680028ECD0984A984801686D
:104220008448006800F096F99449086A04F01CF983
:104230000446944A21469448006800F08BF991485E
:10424000006A82490860084600689049884203DC99
:1042500008467E49086008E07C48006841F6C811BD
:10426000884202DB0846794908607F4A4FF0844162
:104270007F48006800E01FE100F06CF97A48006AAE
:104280008349884203DC08467749086208E076489B
:10429000006A41F26801884202DB084672490862FE
:1042A0006E48006840F20D2188427DDD79487A49E8
:1042B000086042F2107079490860794879490860CD
:1042C00079495C48006804F0FBF803D876485949FE
:1042D000086008E075495748006804F0F1F902D811
:1042E0007248544908605C480068A8B36A4801688D
:1042F0006548006804F0E4F816D26748006880F06A
:10430000004461480168204604F0DAF80CD24FF40A
:10431000966000906348B4224FF4C87103684D481A
:104320000068FFF77DFECBE05C48006804F09CF875
:10433000054655480168284604F0F6F8044604F09E
:1043400057F85B490860084600685149884204DC18
:1043500008465749086009E013E05548006841F2F3
:104360006801884202DB08465149086050480068ED
:104370004342002211464E4800684042FCF771FA61
:104380009EE0454801684048006804F099F817D25B
:104390004148006880F000443B480168204604F032
:1043A0008FF80DD2434800E037E000903D48B4223A
:1043B0004FF4C871036827480068FFF731FE7FE0BB
:1043C0003648006804F050F805462F480168284632
:1043D00004F0AAF8044604F00BF8354908600846D2
:1043E00000682B496431884203DC08463049086084
:1043F00008E02F48006841F20401884202DB0846C9
:104400002B4908602A480068434200221146284888
:1044100000684042FCF725FA52E0134A126A0B4B3F
:104420001B68D118104A126A084B1B68981AFCF7CF
:10443000DFF945E02C00002000001EC000001E40F7
:10444000BC000020AC0000200000A040A80000201C
:104450000000A0C094000020C0000020B400002094
:104460009800002090000020A401002000003042AD
:10447000E00000200000604148F4FFFF140100202C
:10448000A0000020380100203C00002038E6FFFF9B
:1044900098EFFFFF00001041C8000020CC00002072
:1044A0001F851F41D0000020000020C100002041D6
:1044B000C400002050FBFFFF00210846FCF798F9DC
:1044C00038BD000000206249C8608860086161480A
:1044D0004861002088616048C86100205F49C86069
:1044E000886008615E484861002088615D48C86155
:1044F00000205D49C860886008615C4848615C488C
:1045000088614FF07E50C86100205A49C8608860B9
:10451000086159484861564888614007C861574852
:10452000006858B100205649C86088600861554845
:104530004861002088615448C8610AE00020504961
:10454000C8608860086144484861002088614E481E
:10455000C86170472DE9F05F05460E461446A06815
:10456000E0603146284604F0DCF8A060A1682069CC
:1045700003F0DAFD20613A49206904F0A1F801D284
:10458000374820614149206903F09AFF01D23F4832
:104590002061D4E9020104F0CFF88246E16903F01A
:1045A000C3FF80462169A06903F0BEFF8246A1686F
:1045B000606903F0B9FF8346514603F0B5FD8146BB
:1045C000414603F0B1FD074603F012FF2062BDE84B
:1045D000F09F2DE9F05F05460E4614463146284609
:1045E00004F09FF860614FF08040A16903F09CFFE8
:1045F0008346616904F095F88246E16903F094FD11
:104600008146216903F090FF07466169E06803F085
:104610008BFF8246D4E9050104F08EF88346A16839
:1046200003F082FF8146514603F07EFD8046394605
:1046300003F07AFD2062A069E0616069A06128460C
:10464000216A03F071FD05462846BDE8F09F7047DA
:1046500014010020000048430000B442380100204B
:1046600000401C46000020415C0100200000A040EA
:104670000AD7233C800100200000A041AC000020AC
:10468000A4010020000096430000704200401CC6B8
:1046900008B50121082001F057F84FF44060ADF84B
:1046A000000010208DF8030003208DF802006946F9
:1046B000F64800F08DFD0120F5490860F549C1F884
:1046C000A80108BD10B50120F1490860F149C1F801
:1046D000A80100F0A6FB0020ED49091F0860ED4984
:1046E000C1F8AC0110BD10B50020E9490860E949E6
:1046F000C1F8A801012000F094FB0120E449086002
:10470000E449C1F8A80110BD70B50446002518E0C1
:1047100004F0800020B10120DD49091F086003E09A
:104720000020DB49091F08600120D949086000F01A
:1047300078FB0020D749C1F8AC016006040E681C64
:10474000C5B2082DE4DB0120D149091F0860D14919
:10475000C1F8AC0100F065FB0020CD49086070BDD8
:1047600010B50446FFF7AEFF7820FFF7CDFF4020DD
:10477000FFF7CAFF2046FFF7C7FFFFF7B4FF10BDE2
:1047800010B50446FFF79EFF7820FFF7BDFF00201D
:10479000FFF7BAFF2046FFF7B7FFFFF7A4FF10BDF2
:1047A00070B504460D4605F1B001C8B2FFF7E8FF49
:1047B000102141EA1410FFF7E3FF04F00F0141F06C
:1047C0000100FFF7DDFF70BD70B50646002415E05F
:1047D00004F1B001C8B2FFF7D3FF0120FFF7D0FF0B
:1047E0001020FFF7CDFF002504E03046FFF7B8FFAB
:1047F000681CC5B2802DF8DB601CC4B2082CE7DB56
:1048000070BD70B5002415E004F1B001C8B2FFF727
:10481000B7FF0120FFF7B4FF1020FFF7B1FF00251D
:1048200004E00020FFF79CFF681CC5B2802DF8DB78
:10483000601CC4B2082CE7DB70BD10B54FF4FA70F1
:1048400000F013FBAE20FFF79BFF0020FFF798FF5F
:104850001020FFF795FF4020FFF792FF8120FFF720
:104860008FFFCF20FFF78CFFA120FFF789FFC82023
:10487000FFF786FFA620FFF783FFA820FFF780FF42
:104880003F20FFF77DFFD320FFF77AFF0020FFF7DF
:1048900077FFD520FFF774FF8020FFF771FFD92045
:1048A000FFF76EFFF120FFF76BFFDA20FFF768FFDD
:1048B0001220FFF765FFDB20FFF762FF4020FFF7C4
:1048C0005FFF2020FFF75CFF0220FFF759FF8D20DC
:1048D000FFF756FF1420FFF753FFA420FFF750FF08
:1048E000A620FFF74DFFAF20FFF74AFF0020FFF79C
:1048F0006BFF00210846FFF753FF10BD2DE9F0477D
:104900000446884615464FF000090026002720E09F
:10491000E85D203800F0FF097E2C04DD002408F15A
:10492000010000F0FF0841462046FFF739FF00264E
:1049300009E009EB4901584A02EB4101885DFFF7A4
:104940000FFF701CC6B2062EF3DBA01DC4B2781C8C
:10495000C7B2E85D0028DBD1BDE8F0872DE9F0475C
:1049600006460F46904600250024A14631E018F87F
:1049700009002038C5B2782E02DD0026781CC7B2A7
:1049800039463046FFF70CFF002407E004EB051121
:10499000424A505CFFF7E4FE601CC4B2082CF5DB11
:1049A000781CC1B23046FFF7FBFE002408E004EBA0
:1049B00005110831394A505CFFF7D2FE601CC4B2C1
:1049C000082CF4DB06F10800C6B209F1010000F082
:1049D000FF0918F809000028C9D1BDE8F0872DE9C2
:1049E000F04780460E4691461F4600250024A9F157
:1049F0002000C5B2B8F17F0F02DDA046B01CC6B2E0
:104A0000102F22D131464046FFF7CAFE002407E0AE
:104A100004EB0511214A505CFFF7A2FE601CC4B2F2
:104A2000082CF5DB701CC1B24046FFF7B9FE00242C
:104A300008E004EB05110831184A505CFFF790FEBE
:104A4000601CC4B2082CF4DB13E0082F11D13146EE
:104A50004046FFF7A5FE002409E005EB45010E4A9C
:104A600002EB4101085DFFF77BFE601CC4B2062C1F
:104A7000F3DBBDE8F08710B50246012000E05043AB
:104A80000B1EA1F10104E1B2F9D110BD000C0140EF
:104A9000AC812142008021425A990008829B000883
:104AA0002DE9FF5F074691461E460E9D4FF0000A16
:104AB000002435E0301B401EC1B20A20FFF7DBFFA7
:104AC000B9FBF0F00A21B0FBF1F201FB1208BAF1D8
:104AD000000F14D1701EA04211DDB8F1000F0CD1EF
:104AE000AB4605EBDB71491001FB0471C8B22B46E4
:104AF00030220199FFF773FF10E04FF0010AAB4637
:104B000005EBDB71491001FB0471C8B208F13001FB
:104B1000CAB22B460199FFF762FF00BF601CC4B206
:104B2000B442C7DBBDE8FF9F2DE9F04180460E4649
:104B3000174600247D0131464046FFF731FE00BF95
:104B400006E09549485DFFF70BFE6D1C601CC4B282
:104B5000102CF6DB701CC1B24046FFF721FE00248A
:104B600006E08D49485DFFF7FBFD6D1C601CC4B27B
:104B7000102CF6DBBDE8F0812DE9F05F06460F460C
:104B800090461C46DDF828A04FF0000BE11704EB1F
:104B90005171C910A4EBC10131B92046E11704EBF2
:104BA0005171C1F3C70506E02046E11704EB5171CE
:104BB000C910491CCDB23D4614E029463046FFF7E6
:104BC000EFFDB1460AE059460BF1010B1AF801005E
:104BD000FFF7C6FD09F1010000F0FF09C145F2DB56
:104BE000681CC5B2A542E8DBBDE8F09F10B56BA21A
:104BF00000210F20FFF7B2FE6BA202210020FFF779
:104C0000ADFE6DA204210020FFF7A8FE6EA20621D2
:104C10000020FFF7A3FE10BD2DE9F04F85B06E48D0
:104C200000684FF47A71B0FBF1F4102003232246A0
:104C3000042100902820FFF733FF674800684FF4F5
:104C40007A71B0FBF1F201FB12041020022322461C
:104C5000042100904820FFF723FF00215F480068EF
:104C600003F02EFC05D25EA202212020FFF776FE83
:104C700004E05CA202212020FFF770FE5748006884
:104C800003F026FA21F00041054602F08FFE0446AB
:104C9000102003232246022100902820FFF700FF66
:104CA0004E48006803F014FA21F00041064602F075
:104CB0007DFE019002F0A9FE8046894647480068C3
:104CC00003F006FA21F0004142464B46CDE90201CD
:104CD00003F014F904460022434B02F0E9FE824639
:104CE00002F064FE04901020022300901946482030
:104CF000049AFFF7D5FE00213C48006803F0E0FB72
:104D000005D237A206213020FFF728FE04E035A2A5
:104D100006213020FFF722FE3448006803F0D8F95E
:104D200021F00041054602F041FE04461020032315
:104D30002246062100903820FFF7B2FE2B4800687B
:104D400003F0C6F921F00041804602F02FFE8346B1
:104D500002F05BFECDE900012448006803F0B8F9D9
:104D600021F000410646DDE9002303F0C7F80022E8
:104D70001D4BCDE9020102F09BFE044602F016FE37
:104D80008246102002235246062100905820FFF749
:104D900087FE05B0BDE8F08F5A95000857696E642C
:104DA00044726976657200007961773A202020208C
:104DB0002E2020270000000074696D653A20202015
:104DC0002E2020730000000070697463683A202070
:104DD00020202E20202700009000002034000020FA
:104DE0002D00000020000000000059402C00002091
:104DF00010B56FF0040000F05EFF2E4800682E49E9
:104E0000B0FBF1F02D4908700846007800EB400136
:104E1000C1EBC0104FF6FF7101EAC00028490880BD
:104E200010BD0146254A12784A434FF0E0235A61EB
:104E300000229A611A46126942F001021A6100BF0B
:104E40004FF0E022106900F001021AB100F4803244
:104E5000002AF5D04FF0E022126922F001024FF053
:104E6000E0231A6100229A6170470146144A1288B1
:104E70004A434FF0E0235A6100229A611A461269B0
:104E800042F001021A6100BF4FF0E022106900F009
:104E900001021AB100F48032002AF5D04FF0E0226E
:104EA000126922F001024FF0E0231A6100229A6198
:104EB000704700001400002000127A00D400002087
:104EC000D6000020014600BF704700BF794A128813
:104ED00002F04002002AF9D0C2B2764B1B1D1A80A4
:104EE000704710B586B00446012144F2040000F07A
:104EF0002BFC0121084600F01AFC4FF40070ADF8BD
:104F0000140003208DF8160018208DF8170005A94D
:104F1000694800F05DF94FF48060ADF8140004209A
:104F20008DF8170005A9644800F052F925208DF886
:104F3000000002208DF8010003208DF802000120FE
:104F40008DF80300684600F06CFE01940020ADF877
:104F50000800ADF80A00ADF80C00ADF810000C2008
:104F6000ADF80E0001A9554800F095FC012240F271
:104F70002551524800F027FD0121504800F017FD4F
:104F800006B010BD10B586B004460121042000F023
:104F9000DBFB0121480400F0E4FB464800F038FC4C
:104FA00018208DF817000420ADF8140003208DF8A8
:104FB000160005A9404800F00BF904208DF81700F1
:104FC0000820ADF8140005A93B4800F001F9019450
:104FD0000020ADF810000C20ADF80E000020ADF858
:104FE0000C00ADF80A00ADF8080001A9314800F046
:104FF00052FC01212F4800F0DAFC012240F2255139
:105000002C4800F0E0FC26208DF8000001208DF8EF
:10501000030002208DF8010001208DF8020068468F
:1050200000F0FFFD06B010BD10B540F22551234839
:1050300000F0AEFD60B1214800F02AFD044603F007
:105040002BFA1F49086040F225511C4800F0CAFDA8
:1050500010BD10B5202440F22551164800F098FDEF
:1050600030B3144800F014FDC4B2422C0BD14221DD
:10507000104800F009FD0020124908600120124983
:10508000087020240FE0532C0DD15321094800F063
:10509000FBFC00200D49086001200A49086000203F
:1050A00009490870202440F22551024800F09AFD79
:1050B00010BD0000004400400008014000380140DD
:1050C000E0000020B401224298000020900000205F
:1050D0000948804709480047FEE7FEE7FEE7FEE78C
:1050E000FEE7FEE7FEE7FEE7FEE7FEE704480549C8
:1050F000054A064B70470000B7040008310100085C
:10510000700200207008002070040020700400204D
:1051100010B50446CC48844208D10121042000F097
:105120002DFB0021042000F029FB46E0C748844203
:1051300008D10121082000F021FB0021082000F007
:105140001DFB3AE0C248844208D10121102000F042
:1051500015FB0021102000F011FB2EE0BD48844219
:1051600008D10121202000F009FB0021202000F0BF
:1051700005FB22E0B848844208D10121402000F01C
:10518000FDFA0021402000F0F9FA16E0B34884420D
:1051900008D10121802000F0F1FA0021802000F0E8
:1051A000EDFA0AE0AE48844207D10121801500F0F3
:1051B000E5FA0021A01500F0E1FA10BD10B50121BB
:1051C000084600F0DBFA0021012000F0D7FA10BDFC
:1051D0002DE9F0410246002500260020002300248E
:1051E000002791F803C00CF00F0591F803C00CF0F4
:1051F000100CBCF1000F03D091F802C04CEA050579
:1052000091F800C0BCF1000F31D0146800202BE0F1
:105210004FF0010C0CFA00F3B1F800C00CEA0306E1
:105220009E4220D183004FF00F0C0CFA03F7BC43D1
:1052300005FA03FC4CEA040491F803C0BCF1280F02
:1052400006D14FF0010C0CFA00FCC2F814C00AE0C1
:1052500091F803C0BCF1480F05D14FF0010C0CFAD6
:1052600000FCC2F810C0401C0828D1D31460B1F86B
:1052700000C0BCF1FF0F34DD546800202EE000F1C7
:10528000080C4FF0010808FA0CF3B1F800C00CEA62
:1052900003069E4221D183004FF00F0C0CFA03F756
:1052A000BC4305FA03FC4CEA040491F803C0BCF1CA
:1052B000280F05D100F1080C08FA0CF8C2F8148088
:1052C00091F803C0BCF1480F07D100F1080C4FF072
:1052D000010808FA0CF8C2F81080401C0828CED348
:1052E0005460BDE8F0814FF6FF71018002218170AA
:1052F0000421C17070470246002093680B400BB137
:10530000012000E0002070470146886880B27047A5
:1053100002460020D3680B400BB1012000E00020C2
:1053200070470146C86880B27047016170474161AB
:1053300070470AB1016100E041617047C160704788
:105340004FF480320A43826181618261826982699D
:10535000704702460020434B18684FF68073184090
:1053600040EA021008433F4B186070473E49C8614D
:105370007047F0B50A46002300240021002500F004
:105380000046B6F1004F02D1364EF16901E0354ECC
:105390007168C0F3034583B200F44016B6F5401FB0
:1053A00008D121F070612F4E766826F070662D4F7F
:1053B0007E6012E000F48016B6F5801F06D1032649
:1053C00006FA05F4A14341F0706106E0460D36018E
:1053D00003FA06F6B14341F0706122B1460D360181
:1053E00003FA06F6314300F00046B6F1004F02D151
:1053F0001C4EF16101E01B4E7160F0BD30B5002222
:105400008B071C0F0F2303FA04F2164B08338C1082
:1054100053F824309343134C08348D1044F825304E
:1054200023468C1053F824308C07240F00FA04F420
:1054300023430C4C08348D1044F8253030BD0A4904
:10544000DC3108607047000000080140000C01409A
:10545000001001400014014000180140001C0140F0
:10546000002001400000014000002042DF480068A9
:1054700040F00100DD49086008464068DC4908400A
:10548000DA49486008460068DA490840D7490860A8
:105490000846006820F4802008600846406820F430
:1054A000FE0048604FF41F0088607047CF490968CC
:1054B00021F48031CD4A11601146096821F4802120
:1054C0001160B0F5803F03D0B0F5802F0ED106E01B
:1054D000C649096841F48031C44A116007E0C349F4
:1054E000096841F4A021C14A116000E000BF00BF7B
:1054F000704710B501460022002300204A11012AFE
:1055000002D1BA4C236806E0022A02D1B74C236AC2
:1055100001E0B64C636A01F01F02012494401C4074
:105520000CB1012000E0002010BD38B50020009033
:105530000024002500BF3120FFF7DBFF054600985F
:10554000401C00900098B0F5A06F01D0002DF2D063
:105550003120FFF7CEFF08B1012400E000242046EF
:1055600038BD01460020A14A106820F0F80040EA4A
:10557000C10010607047A0490860704702460020D3
:105580009A4B586820F47C1042EA01031843974B69
:105590005860704798490866704701460020934A52
:1055A000506820F003000843506070478F484068FF
:1055B00000F00C007047014600208C4A506820F033
:1055C000F00008435060704701460020874A506849
:1055D00020F4E06008435060704701460020834A91
:1055E000506820F4605040EAC1005060704729B113
:1055F0007E4A527A02437D4B5A7204E07B4A527AC9
:1056000082437A4B5A7270477B49D83108607047A1
:1056100001460020754A506820F44040084350601D
:1056200070470021714A20321170704A82F82010B0
:10563000012802D004280AD104E001216B4A20325B
:10564000117005E00521694A2032117000E000BFA9
:1056500000BF70476949086070476449096A01439F
:10566000624A11627047654944390860704730B535
:1056700000210022002400235C4D6D6805F00C0120
:1056800021B1042905D0082923D105E05C4D05602E
:1056900022E05B4D05601FE0544D6D6805F470120B
:1056A000524D6D6805F48034022505EB92421CB919
:1056B000544D554305600BE04C4D6D6805F40035C5
:1056C0001DB1504D5543056002E04D4D55430560F9
:1056D00002E04B4D056000BF00BF444D6D6805F012
:1056E000F0010909484D6B5C0568DD4045603F4DA0
:1056F0006D6805F4E061090A434D6B5C4568DD4067
:1057000085603A4D6D6805F46051C90A3E4D6B5C89
:105710004568DD40C560354D6D6805F44041890B35
:105720003A4D6B5CC568B5FBF3F5056130BD29B139
:105730002E4A526902432D4B5A6104E02B4A5269AA
:1057400082432A4B5A61704729B1284A9269024321
:10575000264B9A6104E0254A92698243234B9A6161
:10576000704729B1214AD2690243204BDA6104E033
:105770001E4AD26982431D4BDA61704729B11B4A28
:10578000D2680243194BDA6004E0184AD2688243B7
:10579000164BDA60704729B1144A12690243134B61
:1057A0001A6104E0114A12698243104B1A61704772
:1057B00012494039086070470F49C86470470B4967
:1057C000C87170470948406A40F0807007494862D4
:1057D000704701460020054A92680A400AB101203C
:1057E00000E00020704701498872704700100240B5
:1057F0000000FFF8FFFFF6FE000042428004424234
:1058000000127A0000093D00F00000200001002095
:1058100010B50446FB48844209D101218803FFF7F3
:10582000ADFF00214FF48040FFF7A8FF32E0F648BB
:10583000844209D101214804FFF7ADFF00214FF454
:105840000030FFF7A8FF25E0F048844209D101218C
:105850008804FFF7A0FF00214FF48020FFF79BFF93
:1058600018E0EB48844209D10121C804FFF793FFF7
:1058700000214FF40020FFF78EFF0BE0E548844243
:1058800008D101210805FFF786FF00214FF48010A1
:10589000FFF781FF10BD2DE9F04786B005460E46A3
:1058A0000024A24600BFA1460027B08900B100BF76
:1058B0002F462C8A4CF6FF700440F08804432C825B
:1058C000AC894EF6F3100440B088318908437189E1
:1058D00008430443AC81AC8A4FF6FF400440B089D2
:1058E0000443AC8201A8FFF7C2FEC648874202D13A
:1058F000DDF810A001E0DDF80CA0A88900F400405C
:1059000040B10AEBCA0000EB0A1031684900B0FB55
:10591000F1F807E00AEBCA0000EB0A1031688900D1
:10592000B0FBF1F86420B8FBF0F004012009642119
:1059300001FB1089A88900F4004040B1322000EB3F
:10594000C900B0FBF1F000F00700044308E032208A
:1059500000EB09106421B0FBF1F000F00F000443EC
:105960002C8106B0BDE8F0874FF41651016000218C
:105970008180C18001810C2141810021818170479A
:1059800010B502460020108A4FF2FF0318400B8822
:105990004C8823438C882343CC88234318431082AC
:1059A00010BD0021018041808180C180704721B1FC
:1059B000828942F40052828104E082894DF6FF73AD
:1059C0001A4082817047F0B5034600240026002566
:1059D000002040F66A17B94200D100BF1846C1F353
:1059E000421401F01F06012707FA06F5012C01D128
:1059F0000C3004E0022C01D1103000E014301AB158
:105A000007682F43076002E00768AF430760F0BDF7
:105A10001AB1838A0B43838202E0838A8B43838299
:105A20007047028A4FF6F0731A400282028A0A43D4
:105A30000282704782894FF2FF731A408281828905
:105A40000A438281704721B1828942F00202828139
:105A500004E082894FF6FD731A4082817047028A02
:105A60004FF6DF731A400282028A0A4302827047AD
:105A700021B1028A42F48042028204E0028A4BF69B
:105A8000FF731A4002827047C1F308028280704798
:105A900001468888C0F308007047818941F0010100
:105AA00081817047028BD2B20283028B42EA0122CB
:105AB00002837047028B02F47F420283028B0A4307
:105AC0000283704721B1828A42F02002828204E080
:105AD000828A4FF6DF731A408282704721B1828A30
